{
  "contractName": "ManySwapPair",
  "abi": [
    {
      "inputs": [
        {
          "internalType": "address",
          "name": "_token0",
          "type": "address"
        },
        {
          "internalType": "address",
          "name": "_token1",
          "type": "address"
        }
      ],
      "stateMutability": "nonpayable",
      "type": "constructor"
    },
    {
      "anonymous": false,
      "inputs": [
        {
          "indexed": true,
          "internalType": "address",
          "name": "owner",
          "type": "address"
        },
        {
          "indexed": true,
          "internalType": "address",
          "name": "spender",
          "type": "address"
        },
        {
          "indexed": false,
          "internalType": "uint256",
          "name": "value",
          "type": "uint256"
        }
      ],
      "name": "Approval",
      "type": "event"
    },
    {
      "anonymous": false,
      "inputs": [
        {
          "indexed": true,
          "internalType": "address",
          "name": "sender",
          "type": "address"
        },
        {
          "indexed": false,
          "internalType": "uint256",
          "name": "amount0",
          "type": "uint256"
        },
        {
          "indexed": false,
          "internalType": "uint256",
          "name": "amount1",
          "type": "uint256"
        }
      ],
      "name": "Mint",
      "type": "event"
    },
    {
      "anonymous": false,
      "inputs": [
        {
          "indexed": false,
          "internalType": "uint112",
          "name": "reserve0",
          "type": "uint112"
        },
        {
          "indexed": false,
          "internalType": "uint112",
          "name": "reserve1",
          "type": "uint112"
        }
      ],
      "name": "Sync",
      "type": "event"
    },
    {
      "anonymous": false,
      "inputs": [
        {
          "indexed": true,
          "internalType": "address",
          "name": "from",
          "type": "address"
        },
        {
          "indexed": true,
          "internalType": "address",
          "name": "to",
          "type": "address"
        },
        {
          "indexed": false,
          "internalType": "uint256",
          "name": "value",
          "type": "uint256"
        }
      ],
      "name": "Transfer",
      "type": "event"
    },
    {
      "inputs": [],
      "name": "MINIMUM_LIQUIDITY",
      "outputs": [
        {
          "internalType": "uint256",
          "name": "",
          "type": "uint256"
        }
      ],
      "stateMutability": "view",
      "type": "function"
    },
    {
      "inputs": [
        {
          "internalType": "address",
          "name": "owner",
          "type": "address"
        },
        {
          "internalType": "address",
          "name": "spender",
          "type": "address"
        }
      ],
      "name": "allowance",
      "outputs": [
        {
          "internalType": "uint256",
          "name": "",
          "type": "uint256"
        }
      ],
      "stateMutability": "view",
      "type": "function"
    },
    {
      "inputs": [
        {
          "internalType": "address",
          "name": "spender",
          "type": "address"
        },
        {
          "internalType": "uint256",
          "name": "amount",
          "type": "uint256"
        }
      ],
      "name": "approve",
      "outputs": [
        {
          "internalType": "bool",
          "name": "",
          "type": "bool"
        }
      ],
      "stateMutability": "nonpayable",
      "type": "function"
    },
    {
      "inputs": [
        {
          "internalType": "address",
          "name": "account",
          "type": "address"
        }
      ],
      "name": "balanceOf",
      "outputs": [
        {
          "internalType": "uint256",
          "name": "",
          "type": "uint256"
        }
      ],
      "stateMutability": "view",
      "type": "function"
    },
    {
      "inputs": [],
      "name": "decimals",
      "outputs": [
        {
          "internalType": "uint8",
          "name": "",
          "type": "uint8"
        }
      ],
      "stateMutability": "view",
      "type": "function"
    },
    {
      "inputs": [
        {
          "internalType": "address",
          "name": "spender",
          "type": "address"
        },
        {
          "internalType": "uint256",
          "name": "subtractedValue",
          "type": "uint256"
        }
      ],
      "name": "decreaseAllowance",
      "outputs": [
        {
          "internalType": "bool",
          "name": "",
          "type": "bool"
        }
      ],
      "stateMutability": "nonpayable",
      "type": "function"
    },
    {
      "inputs": [
        {
          "internalType": "address",
          "name": "spender",
          "type": "address"
        },
        {
          "internalType": "uint256",
          "name": "addedValue",
          "type": "uint256"
        }
      ],
      "name": "increaseAllowance",
      "outputs": [
        {
          "internalType": "bool",
          "name": "",
          "type": "bool"
        }
      ],
      "stateMutability": "nonpayable",
      "type": "function"
    },
    {
      "inputs": [],
      "name": "kLast",
      "outputs": [
        {
          "internalType": "uint256",
          "name": "",
          "type": "uint256"
        }
      ],
      "stateMutability": "view",
      "type": "function"
    },
    {
      "inputs": [],
      "name": "name",
      "outputs": [
        {
          "internalType": "string",
          "name": "",
          "type": "string"
        }
      ],
      "stateMutability": "view",
      "type": "function"
    },
    {
      "inputs": [],
      "name": "price0CumulativeLast",
      "outputs": [
        {
          "internalType": "uint256",
          "name": "",
          "type": "uint256"
        }
      ],
      "stateMutability": "view",
      "type": "function"
    },
    {
      "inputs": [],
      "name": "price1CumulativeLast",
      "outputs": [
        {
          "internalType": "uint256",
          "name": "",
          "type": "uint256"
        }
      ],
      "stateMutability": "view",
      "type": "function"
    },
    {
      "inputs": [],
      "name": "symbol",
      "outputs": [
        {
          "internalType": "string",
          "name": "",
          "type": "string"
        }
      ],
      "stateMutability": "view",
      "type": "function"
    },
    {
      "inputs": [],
      "name": "token0",
      "outputs": [
        {
          "internalType": "address",
          "name": "",
          "type": "address"
        }
      ],
      "stateMutability": "view",
      "type": "function"
    },
    {
      "inputs": [],
      "name": "token1",
      "outputs": [
        {
          "internalType": "address",
          "name": "",
          "type": "address"
        }
      ],
      "stateMutability": "view",
      "type": "function"
    },
    {
      "inputs": [],
      "name": "totalSupply",
      "outputs": [
        {
          "internalType": "uint256",
          "name": "",
          "type": "uint256"
        }
      ],
      "stateMutability": "view",
      "type": "function"
    },
    {
      "inputs": [
        {
          "internalType": "address",
          "name": "to",
          "type": "address"
        },
        {
          "internalType": "uint256",
          "name": "amount",
          "type": "uint256"
        }
      ],
      "name": "transfer",
      "outputs": [
        {
          "internalType": "bool",
          "name": "",
          "type": "bool"
        }
      ],
      "stateMutability": "nonpayable",
      "type": "function"
    },
    {
      "inputs": [
        {
          "internalType": "address",
          "name": "from",
          "type": "address"
        },
        {
          "internalType": "address",
          "name": "to",
          "type": "address"
        },
        {
          "internalType": "uint256",
          "name": "amount",
          "type": "uint256"
        }
      ],
      "name": "transferFrom",
      "outputs": [
        {
          "internalType": "bool",
          "name": "",
          "type": "bool"
        }
      ],
      "stateMutability": "nonpayable",
      "type": "function"
    },
    {
      "inputs": [],
      "name": "getReserves",
      "outputs": [
        {
          "internalType": "uint112",
          "name": "_reserve0",
          "type": "uint112"
        },
        {
          "internalType": "uint112",
          "name": "_reserve1",
          "type": "uint112"
        },
        {
          "internalType": "uint32",
          "name": "_blockTimestampLast",
          "type": "uint32"
        }
      ],
      "stateMutability": "view",
      "type": "function"
    },
    {
      "inputs": [
        {
          "internalType": "address",
          "name": "to",
          "type": "address"
        }
      ],
      "name": "mint",
      "outputs": [
        {
          "internalType": "uint256",
          "name": "liquidity",
          "type": "uint256"
        }
      ],
      "stateMutability": "nonpayable",
      "type": "function"
    }
  ],
  "bytecode": "0x60806040526001600b553480156200001657600080fd5b50604051620025c4380380620025c483398181016040528101906200003c919062000280565b6040518060400160405280600d81526020017f4d616e79537761702070616972000000000000000000000000000000000000008152506040518060400160405280600481526020017f4d535750000000000000000000000000000000000000000000000000000000008152508160039080519060200190620000c092919062000166565b508060049080519060200190620000d992919062000166565b50505081600560006101000a81548173ffffffffffffffffffffffffffffffffffffffff021916908373ffffffffffffffffffffffffffffffffffffffff16021790555080600660006101000a81548173ffffffffffffffffffffffffffffffffffffffff021916908373ffffffffffffffffffffffffffffffffffffffff16021790555050506200032b565b8280546200017490620002f6565b90600052602060002090601f016020900481019282620001985760008555620001e4565b82601f10620001b357805160ff1916838001178555620001e4565b82800160010185558215620001e4579182015b82811115620001e3578251825591602001919060010190620001c6565b5b509050620001f39190620001f7565b5090565b5b8082111562000212576000816000905550600101620001f8565b5090565b600080fd5b600073ffffffffffffffffffffffffffffffffffffffff82169050919050565b600062000248826200021b565b9050919050565b6200025a816200023b565b81146200026657600080fd5b50565b6000815190506200027a816200024f565b92915050565b600080604083850312156200029a576200029962000216565b5b6000620002aa8582860162000269565b9250506020620002bd8582860162000269565b9150509250929050565b7f4e487b7100000000000000000000000000000000000000000000000000000000600052602260045260246000fd5b600060028204905060018216806200030f57607f821691505b602082108103620003255762000324620002c7565b5b50919050565b612289806200033b6000396000f3fe608060405234801561001057600080fd5b50600436106101215760003560e01c80635a3d5493116100ad578063a457c2d711610071578063a457c2d714610326578063a9059cbb14610356578063ba9a7a5614610386578063d21220a7146103a4578063dd62ed3e146103c257610121565b80635a3d54931461026c5780636a6278421461028a57806370a08231146102ba5780637464fc3d146102ea57806395d89b411461030857610121565b806318160ddd116100f457806318160ddd146101b257806323b872dd146101d0578063313ce56714610200578063395093511461021e5780635909c0d51461024e57610121565b806306fdde03146101265780630902f1ac14610144578063095ea7b3146101645780630dfe168114610194575b600080fd5b61012e6103f2565b60405161013b919061162f565b60405180910390f35b61014c610484565b60405161015b93929190611699565b60405180910390f35b61017e60048036038101906101799190611769565b6104e1565b60405161018b91906117c4565b60405180910390f35b61019c610504565b6040516101a991906117ee565b60405180910390f35b6101ba61052a565b6040516101c79190611818565b60405180910390f35b6101ea60048036038101906101e59190611833565b610534565b6040516101f791906117c4565b60405180910390f35b610208610563565b60405161021591906118a2565b60405180910390f35b61023860048036038101906102339190611769565b61056c565b60405161024591906117c4565b60405180910390f35b6102566105a3565b6040516102639190611818565b60405180910390f35b6102746105a9565b6040516102819190611818565b60405180910390f35b6102a4600480360381019061029f91906118bd565b6105af565b6040516102b19190611818565b60405180910390f35b6102d460048036038101906102cf91906118bd565b610917565b6040516102e19190611818565b60405180910390f35b6102f261095f565b6040516102ff9190611818565b60405180910390f35b610310610965565b60405161031d919061162f565b60405180910390f35b610340600480360381019061033b9190611769565b6109f7565b60405161034d91906117c4565b60405180910390f35b610370600480360381019061036b9190611769565b610a6e565b60405161037d91906117c4565b60405180910390f35b61038e610a91565b60405161039b9190611818565b60405180910390f35b6103ac610a97565b6040516103b991906117ee565b60405180910390f35b6103dc60048036038101906103d791906118ea565b610abd565b6040516103e99190611818565b60405180910390f35b60606003805461040190611959565b80601f016020809104026020016040519081016040528092919081815260200182805461042d90611959565b801561047a5780601f1061044f5761010080835404028352916020019161047a565b820191906000526020600020905b81548152906001019060200180831161045d57829003601f168201915b5050505050905090565b6000806000600760009054906101000a90046dffffffffffffffffffffffffffff1692506007600e9054906101000a90046dffffffffffffffffffffffffffff1691506007601c9054906101000a900463ffffffff169050909192565b6000806104ec610b44565b90506104f9818585610b4c565b600191505092915050565b600560009054906101000a900473ffffffffffffffffffffffffffffffffffffffff1681565b6000600254905090565b60008061053f610b44565b905061054c858285610d15565b610557858585610da1565b60019150509392505050565b60006012905090565b600080610577610b44565b90506105988185856105898589610abd565b61059391906119b9565b610b4c565b600191505092915050565b60085481565b60095481565b60006001600b54146105f6576040517f08c379a00000000000000000000000000000000000000000000000000000000081526004016105ed90611a5b565b60405180910390fd5b6000600b81905550600080610609610484565b50915091506000600560009054906101000a900473ffffffffffffffffffffffffffffffffffffffff1673ffffffffffffffffffffffffffffffffffffffff166370a08231306040518263ffffffff1660e01b815260040161066b91906117ee565b602060405180830381865afa158015610688573d6000803e3d6000fd5b505050506040513d601f19601f820116820180604052508101906106ac9190611a90565b90506000600660009054906101000a900473ffffffffffffffffffffffffffffffffffffffff1673ffffffffffffffffffffffffffffffffffffffff166370a08231306040518263ffffffff1660e01b815260040161070b91906117ee565b602060405180830381865afa158015610728573d6000803e3d6000fd5b505050506040513d601f19601f8201168201806040525081019061074c9190611a90565b90506000610773856dffffffffffffffffffffffffffff168461102090919063ffffffff16565b9050600061079a856dffffffffffffffffffffffffffff168461102090919063ffffffff16565b905060006107a661052a565b9050600081036107f3576107df6103e86107d16107cc858761103690919063ffffffff16565b61104c565b61102090919063ffffffff16565b97506107ee60006103e86110c6565b61085a565b610857876dffffffffffffffffffffffffffff1661081a838661103690919063ffffffff16565b6108249190611aec565b876dffffffffffffffffffffffffffff16610848848661103690919063ffffffff16565b6108529190611aec565b611225565b97505b6000881161089d576040517f08c379a000000000000000000000000000000000000000000000000000000000815260040161089490611b8f565b60405180910390fd5b6108a789896110c6565b6108b38585898961123e565b3373ffffffffffffffffffffffffffffffffffffffff167f4c209b5fc8ad50758f13e2e1088ba56a560dff690a1c6fef26394f4c03821c4f84846040516108fb929190611baf565b60405180910390a2505050505050506001600b81905550919050565b60008060008373ffffffffffffffffffffffffffffffffffffffff1673ffffffffffffffffffffffffffffffffffffffff168152602001908152602001600020549050919050565b600a5481565b60606004805461097490611959565b80601f01602080910402602001604051908101604052809291908181526020018280546109a090611959565b80156109ed5780601f106109c2576101008083540402835291602001916109ed565b820191906000526020600020905b8154815290600101906020018083116109d057829003601f168201915b5050505050905090565b600080610a02610b44565b90506000610a108286610abd565b905083811015610a55576040517f08c379a0000000000000000000000000000000000000000000000000000000008152600401610a4c90611c4a565b60405180910390fd5b610a628286868403610b4c565b60019250505092915050565b600080610a79610b44565b9050610a86818585610da1565b600191505092915050565b6103e881565b600660009054906101000a900473ffffffffffffffffffffffffffffffffffffffff1681565b6000600160008473ffffffffffffffffffffffffffffffffffffffff1673ffffffffffffffffffffffffffffffffffffffff16815260200190815260200160002060008373ffffffffffffffffffffffffffffffffffffffff1673ffffffffffffffffffffffffffffffffffffffff16815260200190815260200160002054905092915050565b600033905090565b600073ffffffffffffffffffffffffffffffffffffffff168373ffffffffffffffffffffffffffffffffffffffff1603610bbb576040517f08c379a0000000000000000000000000000000000000000000000000000000008152600401610bb290611cdc565b60405180910390fd5b600073ffffffffffffffffffffffffffffffffffffffff168273ffffffffffffffffffffffffffffffffffffffff1603610c2a576040517f08c379a0000000000000000000000000000000000000000000000000000000008152600401610c2190611d6e565b60405180910390fd5b80600160008573ffffffffffffffffffffffffffffffffffffffff1673ffffffffffffffffffffffffffffffffffffffff16815260200190815260200160002060008473ffffffffffffffffffffffffffffffffffffffff1673ffffffffffffffffffffffffffffffffffffffff168152602001908152602001600020819055508173ffffffffffffffffffffffffffffffffffffffff168373ffffffffffffffffffffffffffffffffffffffff167f8c5be1e5ebec7d5bd14f71427d1e84f3dd0314c0f7b2291e5b200ac8c7c3b92583604051610d089190611818565b60405180910390a3505050565b6000610d218484610abd565b90507fffffffffffffffffffffffffffffffffffffffffffffffffffffffffffffffff8114610d9b5781811015610d8d576040517f08c379a0000000000000000000000000000000000000000000000000000000008152600401610d8490611dda565b60405180910390fd5b610d9a8484848403610b4c565b5b50505050565b600073ffffffffffffffffffffffffffffffffffffffff168373ffffffffffffffffffffffffffffffffffffffff1603610e10576040517f08c379a0000000000000000000000000000000000000000000000000000000008152600401610e0790611e6c565b60405180910390fd5b600073ffffffffffffffffffffffffffffffffffffffff168273ffffffffffffffffffffffffffffffffffffffff1603610e7f576040517f08c379a0000000000000000000000000000000000000000000000000000000008152600401610e7690611efe565b60405180910390fd5b610e8a838383611532565b60008060008573ffffffffffffffffffffffffffffffffffffffff1673ffffffffffffffffffffffffffffffffffffffff16815260200190815260200160002054905081811015610f10576040517f08c379a0000000000000000000000000000000000000000000000000000000008152600401610f0790611f90565b60405180910390fd5b8181036000808673ffffffffffffffffffffffffffffffffffffffff1673ffffffffffffffffffffffffffffffffffffffff16815260200190815260200160002081905550816000808573ffffffffffffffffffffffffffffffffffffffff1673ffffffffffffffffffffffffffffffffffffffff1681526020019081526020016000206000828254610fa391906119b9565b925050819055508273ffffffffffffffffffffffffffffffffffffffff168473ffffffffffffffffffffffffffffffffffffffff167fddf252ad1be2c89b69c2b068fc378daa952ba7f163c4a11628f55a4df523b3ef846040516110079190611818565b60405180910390a361101a848484611537565b50505050565b6000818361102e9190611fb0565b905092915050565b600081836110449190611fe4565b905092915050565b600060038211156110b3578190506000600160028461106b9190611aec565b61107591906119b9565b90505b818110156110ad5780915060028182856110929190611aec565b61109c91906119b9565b6110a69190611aec565b9050611078565b506110c1565b600082146110c057600190505b5b919050565b600073ffffffffffffffffffffffffffffffffffffffff168273ffffffffffffffffffffffffffffffffffffffff1603611135576040517f08c379a000000000000000000000000000000000000000000000000000000000815260040161112c9061208a565b60405180910390fd5b61114160008383611532565b806002600082825461115391906119b9565b92505081905550806000808473ffffffffffffffffffffffffffffffffffffffff1673ffffffffffffffffffffffffffffffffffffffff16815260200190815260200160002060008282546111a891906119b9565b925050819055508173ffffffffffffffffffffffffffffffffffffffff16600073ffffffffffffffffffffffffffffffffffffffff167fddf252ad1be2c89b69c2b068fc378daa952ba7f163c4a11628f55a4df523b3ef8360405161120d9190611818565b60405180910390a361122160008383611537565b5050565b60008183106112345781611236565b825b905092915050565b6dffffffffffffffffffffffffffff8016841115801561126e57506dffffffffffffffffffffffffffff80168311155b6112ad576040517f08c379a00000000000000000000000000000000000000000000000000000000081526004016112a4906120f6565b60405180910390fd5b6000640100000000426112c09190612116565b905060006007601c9054906101000a900463ffffffff16826112e29190612147565b905060008163ffffffff1611801561130b57506000846dffffffffffffffffffffffffffff1614155b801561132857506000836dffffffffffffffffffffffffffff1614155b1561142e578063ffffffff1661136d856113418661153c565b7bffffffffffffffffffffffffffffffffffffffffffffffffffffffff1661157090919063ffffffff16565b7bffffffffffffffffffffffffffffffffffffffffffffffffffffffff166113959190611fe4565b600860008282546113a691906119b9565b925050819055508063ffffffff166113ed846113c18761153c565b7bffffffffffffffffffffffffffffffffffffffffffffffffffffffff1661157090919063ffffffff16565b7bffffffffffffffffffffffffffffffffffffffffffffffffffffffff166114159190611fe4565b6009600082825461142691906119b9565b925050819055505b85600760006101000a8154816dffffffffffffffffffffffffffff02191690836dffffffffffffffffffffffffffff160217905550846007600e6101000a8154816dffffffffffffffffffffffffffff02191690836dffffffffffffffffffffffffffff160217905550816007601c6101000a81548163ffffffff021916908363ffffffff1602179055507f1c411e9a96e071241c2f21f7726b17ae89e3cab4c78be50e062b03a9fffbbad1600760009054906101000a90046dffffffffffffffffffffffffffff166007600e9054906101000a90046dffffffffffffffffffffffffffff1660405161152292919061217b565b60405180910390a1505050505050565b505050565b505050565b60006e010000000000000000000000000000826dffffffffffffffffffffffffffff1661156991906121cc565b9050919050565b6000816dffffffffffffffffffffffffffff168361158e9190612222565b905092915050565b600081519050919050565b600082825260208201905092915050565b60005b838110156115d05780820151818401526020810190506115b5565b838111156115df576000848401525b50505050565b6000601f19601f8301169050919050565b600061160182611596565b61160b81856115a1565b935061161b8185602086016115b2565b611624816115e5565b840191505092915050565b6000602082019050818103600083015261164981846115f6565b905092915050565b60006dffffffffffffffffffffffffffff82169050919050565b61167481611651565b82525050565b600063ffffffff82169050919050565b6116938161167a565b82525050565b60006060820190506116ae600083018661166b565b6116bb602083018561166b565b6116c8604083018461168a565b949350505050565b600080fd5b600073ffffffffffffffffffffffffffffffffffffffff82169050919050565b6000611700826116d5565b9050919050565b611710816116f5565b811461171b57600080fd5b50565b60008135905061172d81611707565b92915050565b6000819050919050565b61174681611733565b811461175157600080fd5b50565b6000813590506117638161173d565b92915050565b600080604083850312156117805761177f6116d0565b5b600061178e8582860161171e565b925050602061179f85828601611754565b9150509250929050565b60008115159050919050565b6117be816117a9565b82525050565b60006020820190506117d960008301846117b5565b92915050565b6117e8816116f5565b82525050565b600060208201905061180360008301846117df565b92915050565b61181281611733565b82525050565b600060208201905061182d6000830184611809565b92915050565b60008060006060848603121561184c5761184b6116d0565b5b600061185a8682870161171e565b935050602061186b8682870161171e565b925050604061187c86828701611754565b9150509250925092565b600060ff82169050919050565b61189c81611886565b82525050565b60006020820190506118b76000830184611893565b92915050565b6000602082840312156118d3576118d26116d0565b5b60006118e18482850161171e565b91505092915050565b60008060408385031215611901576119006116d0565b5b600061190f8582860161171e565b92505060206119208582860161171e565b9150509250929050565b7f4e487b7100000000000000000000000000000000000000000000000000000000600052602260045260246000fd5b6000600282049050600182168061197157607f821691505b6020821081036119845761198361192a565b5b50919050565b7f4e487b7100000000000000000000000000000000000000000000000000000000600052601160045260246000fd5b60006119c482611733565b91506119cf83611733565b9250827fffffffffffffffffffffffffffffffffffffffffffffffffffffffffffffffff03821115611a0457611a0361198a565b5b828201905092915050565b7f4d616e79537761703a204c4f434b454400000000000000000000000000000000600082015250565b6000611a456010836115a1565b9150611a5082611a0f565b602082019050919050565b60006020820190508181036000830152611a7481611a38565b9050919050565b600081519050611a8a8161173d565b92915050565b600060208284031215611aa657611aa56116d0565b5b6000611ab484828501611a7b565b91505092915050565b7f4e487b7100000000000000000000000000000000000000000000000000000000600052601260045260246000fd5b6000611af782611733565b9150611b0283611733565b925082611b1257611b11611abd565b5b828204905092915050565b7f4d616e79537761703a20494e53554646494349454e545f4c495155494449545960008201527f5f4d494e54454400000000000000000000000000000000000000000000000000602082015250565b6000611b796027836115a1565b9150611b8482611b1d565b604082019050919050565b60006020820190508181036000830152611ba881611b6c565b9050919050565b6000604082019050611bc46000830185611809565b611bd16020830184611809565b9392505050565b7f45524332303a2064656372656173656420616c6c6f77616e63652062656c6f7760008201527f207a65726f000000000000000000000000000000000000000000000000000000602082015250565b6000611c346025836115a1565b9150611c3f82611bd8565b604082019050919050565b60006020820190508181036000830152611c6381611c27565b9050919050565b7f45524332303a20617070726f76652066726f6d20746865207a65726f2061646460008201527f7265737300000000000000000000000000000000000000000000000000000000602082015250565b6000611cc66024836115a1565b9150611cd182611c6a565b604082019050919050565b60006020820190508181036000830152611cf581611cb9565b9050919050565b7f45524332303a20617070726f766520746f20746865207a65726f20616464726560008201527f7373000000000000000000000000000000000000000000000000000000000000602082015250565b6000611d586022836115a1565b9150611d6382611cfc565b604082019050919050565b60006020820190508181036000830152611d8781611d4b565b9050919050565b7f45524332303a20696e73756666696369656e7420616c6c6f77616e6365000000600082015250565b6000611dc4601d836115a1565b9150611dcf82611d8e565b602082019050919050565b60006020820190508181036000830152611df381611db7565b9050919050565b7f45524332303a207472616e736665722066726f6d20746865207a65726f20616460008201527f6472657373000000000000000000000000000000000000000000000000000000602082015250565b6000611e566025836115a1565b9150611e6182611dfa565b604082019050919050565b60006020820190508181036000830152611e8581611e49565b9050919050565b7f45524332303a207472616e7366657220746f20746865207a65726f206164647260008201527f6573730000000000000000000000000000000000000000000000000000000000602082015250565b6000611ee86023836115a1565b9150611ef382611e8c565b604082019050919050565b60006020820190508181036000830152611f1781611edb565b9050919050565b7f45524332303a207472616e7366657220616d6f756e742065786365656473206260008201527f616c616e63650000000000000000000000000000000000000000000000000000602082015250565b6000611f7a6026836115a1565b9150611f8582611f1e565b604082019050919050565b60006020820190508181036000830152611fa981611f6d565b9050919050565b6000611fbb82611733565b9150611fc683611733565b925082821015611fd957611fd861198a565b5b828203905092915050565b6000611fef82611733565b9150611ffa83611733565b9250817fffffffffffffffffffffffffffffffffffffffffffffffffffffffffffffffff04831182151516156120335761203261198a565b5b828202905092915050565b7f45524332303a206d696e7420746f20746865207a65726f206164647265737300600082015250565b6000612074601f836115a1565b915061207f8261203e565b602082019050919050565b600060208201905081810360008301526120a381612067565b9050919050565b7f556e697377617056323a204f564552464c4f5700000000000000000000000000600082015250565b60006120e06013836115a1565b91506120eb826120aa565b602082019050919050565b6000602082019050818103600083015261210f816120d3565b9050919050565b600061212182611733565b915061212c83611733565b92508261213c5761213b611abd565b5b828206905092915050565b60006121528261167a565b915061215d8361167a565b9250828210156121705761216f61198a565b5b828203905092915050565b6000604082019050612190600083018561166b565b61219d602083018461166b565b9392505050565b60007bffffffffffffffffffffffffffffffffffffffffffffffffffffffff82169050919050565b60006121d7826121a4565b91506121e2836121a4565b9250817bffffffffffffffffffffffffffffffffffffffffffffffffffffffff04831182151516156122175761221661198a565b5b828202905092915050565b600061222d826121a4565b9150612238836121a4565b92508261224857612247611abd565b5b82820490509291505056fea26469706673582212202f6d1cca0d4f0ce3dcd979579c0feaa21a022cc6318d7f5333b1d8739e727b1964736f6c634300080d0033",
  "immutableReferences": {},
  "source": "// contracts/ManySwapPair.sol\n// SPDX-License-Identifier: MIT\npragma solidity ^0.8.0;\n\nimport \"@openzeppelin/contracts/token/ERC20/ERC20.sol\";\nimport \"@openzeppelin/contracts/token/ERC20/IERC20.sol\";\nimport \"@openzeppelin/contracts/utils/math/Math.sol\";\nimport \"@openzeppelin/contracts/utils/math/SafeMath.sol\";\n\nimport './libraries/UQ112x112.sol';\nimport './libraries/AdvancedMath.sol';\n\ncontract ManySwapPair is IERC20, ERC20  {\n    using UQ112x112 for uint224;\n    using SafeMath  for uint;\n\n    address public token0;\n    address public token1;\n\n    uint112 private reserve0; // uses single storage slot, accessible via getReserves\n    uint112 private reserve1; // uses single storage slot, accessible via getReserves\n    uint32 private blockTimestampLast; // uses single storage slot, accessible via getReserves\n\n    uint public constant MINIMUM_LIQUIDITY = 10**3;\n\n    uint public price0CumulativeLast;\n    uint public price1CumulativeLast;\n    uint public kLast; // reserve0 * reserve1, as of immediately after the most recent liquidity event\n\n    uint256 private unlocked = 1;\n    modifier lock() {\n        require(unlocked == 1, \"ManySwap: LOCKED\");\n        unlocked = 0;\n        _;\n        unlocked = 1;\n    }\n\n    constructor(address _token0, address _token1) ERC20(\"ManySwap pair\", \"MSWP\") {\n        token0 = _token0;\n        token1 = _token1;\n    }\n\n    function getReserves()\n        public\n        view\n        returns (\n            uint112 _reserve0,\n            uint112 _reserve1,\n            uint32 _blockTimestampLast\n        )\n    {\n        _reserve0 = reserve0;\n        _reserve1 = reserve1;\n        _blockTimestampLast = blockTimestampLast;\n    }\n\n    event Mint(address indexed sender, uint amount0, uint amount1);\n    event Sync(uint112 reserve0, uint112 reserve1);\n\n        // update reserves and, on the first call per block, price accumulators\n    function _update(uint balance0, uint balance1, uint112 _reserve0, uint112 _reserve1) private {\n        require(balance0 <= type(uint112).max && balance1 <= type(uint112).max, 'UniswapV2: OVERFLOW');\n        uint32 blockTimestamp = uint32(block.timestamp % 2**32);\n        uint32 timeElapsed = blockTimestamp - blockTimestampLast; // overflow is desired\n        if (timeElapsed > 0 && _reserve0 != 0 && _reserve1 != 0) {\n            // * never overflows, and + overflow is desired\n            price0CumulativeLast += uint(UQ112x112.encode(_reserve1).uqdiv(_reserve0)) * timeElapsed;\n            price1CumulativeLast += uint(UQ112x112.encode(_reserve0).uqdiv(_reserve1)) * timeElapsed;\n        }\n        reserve0 = uint112(balance0);\n        reserve1 = uint112(balance1);\n        blockTimestampLast = blockTimestamp;\n        emit Sync(reserve0, reserve1);\n    }\n\n    // this low-level function should be called from a contract which performs important safety checks\n    function mint(address to) external lock returns (uint256 liquidity) {\n        (uint112 _reserve0, uint112 _reserve1, ) = getReserves(); // gas savings\n        uint256 balance0 = IERC20(token0).balanceOf(address(this));\n        uint256 balance1 = IERC20(token1).balanceOf(address(this));\n        uint256 amount0 = balance0.sub(_reserve0);\n        uint256 amount1 = balance1.sub(_reserve1);\n\n        // bool feeOn = _mintFee(_reserve0, _reserve1);\n        uint256 _totalSupply = totalSupply(); // gas savings, must be defined here since totalSupply can update in _mintFee\n        if (_totalSupply == 0) {\n            liquidity = AdvancedMath.sqrt(amount0.mul(amount1)).sub(MINIMUM_LIQUIDITY);\n            _mint(address(0), MINIMUM_LIQUIDITY); // permanently lock the first MINIMUM_LIQUIDITY tokens\n        } else {\n            liquidity = Math.min(\n                amount0.mul(_totalSupply) / _reserve0,\n                amount1.mul(_totalSupply) / _reserve1\n            );\n        }\n        require(liquidity > 0, \"ManySwap: INSUFFICIENT_LIQUIDITY_MINTED\");\n        _mint(to, liquidity);\n\n        _update(balance0, balance1, _reserve0, _reserve1);\n        // if (feeOn) kLast = uint256(reserve0).mul(reserve1); // reserve0 and reserve1 are up-to-date\n        emit Mint(msg.sender, amount0, amount1);\n    }\n}\n",
  "sourcePath": "/home/raphaelv/CODE/many-swap/contracts/contracts/ManySwapPair.sol",
  "compiler": {
    "name": "solc",
    "version": "0.8.13+commit.abaa5c0e.Emscripten.clang"
  },
  "schemaVersion": "3.4.7",
  "updatedAt": "2022-05-12T09:35:32.300Z",
  "devdoc": {
    "kind": "dev",
    "methods": {
      "allowance(address,address)": {
        "details": "See {IERC20-allowance}."
      },
      "approve(address,uint256)": {
        "details": "See {IERC20-approve}. NOTE: If `amount` is the maximum `uint256`, the allowance is not updated on `transferFrom`. This is semantically equivalent to an infinite approval. Requirements: - `spender` cannot be the zero address."
      },
      "balanceOf(address)": {
        "details": "See {IERC20-balanceOf}."
      },
      "decimals()": {
        "details": "Returns the number of decimals used to get its user representation. For example, if `decimals` equals `2`, a balance of `505` tokens should be displayed to a user as `5.05` (`505 / 10 ** 2`). Tokens usually opt for a value of 18, imitating the relationship between Ether and Wei. This is the value {ERC20} uses, unless this function is overridden; NOTE: This information is only used for _display_ purposes: it in no way affects any of the arithmetic of the contract, including {IERC20-balanceOf} and {IERC20-transfer}."
      },
      "decreaseAllowance(address,uint256)": {
        "details": "Atomically decreases the allowance granted to `spender` by the caller. This is an alternative to {approve} that can be used as a mitigation for problems described in {IERC20-approve}. Emits an {Approval} event indicating the updated allowance. Requirements: - `spender` cannot be the zero address. - `spender` must have allowance for the caller of at least `subtractedValue`."
      },
      "increaseAllowance(address,uint256)": {
        "details": "Atomically increases the allowance granted to `spender` by the caller. This is an alternative to {approve} that can be used as a mitigation for problems described in {IERC20-approve}. Emits an {Approval} event indicating the updated allowance. Requirements: - `spender` cannot be the zero address."
      },
      "name()": {
        "details": "Returns the name of the token."
      },
      "symbol()": {
        "details": "Returns the symbol of the token, usually a shorter version of the name."
      },
      "totalSupply()": {
        "details": "See {IERC20-totalSupply}."
      },
      "transfer(address,uint256)": {
        "details": "See {IERC20-transfer}. Requirements: - `to` cannot be the zero address. - the caller must have a balance of at least `amount`."
      },
      "transferFrom(address,address,uint256)": {
        "details": "See {IERC20-transferFrom}. Emits an {Approval} event indicating the updated allowance. This is not required by the EIP. See the note at the beginning of {ERC20}. NOTE: Does not update the allowance if the current allowance is the maximum `uint256`. Requirements: - `from` and `to` cannot be the zero address. - `from` must have a balance of at least `amount`. - the caller must have allowance for ``from``'s tokens of at least `amount`."
      }
    },
    "version": 1
  },
  "userdoc": {
    "kind": "user",
    "methods": {},
    "version": 1
  }
}