{
  "contractName": "Router",
  "abi": [
    {
      "inputs": [
        {
          "internalType": "uint256",
          "name": "",
          "type": "uint256"
        }
      ],
      "name": "allPairs",
      "outputs": [
        {
          "internalType": "contract ManySwapPair",
          "name": "",
          "type": "address"
        }
      ],
      "stateMutability": "view",
      "type": "function",
      "constant": true
    },
    {
      "inputs": [
        {
          "internalType": "address",
          "name": "",
          "type": "address"
        },
        {
          "internalType": "address",
          "name": "",
          "type": "address"
        }
      ],
      "name": "getPair",
      "outputs": [
        {
          "internalType": "address",
          "name": "",
          "type": "address"
        }
      ],
      "stateMutability": "view",
      "type": "function",
      "constant": true
    },
    {
      "inputs": [],
      "name": "getAllPairsLength",
      "outputs": [
        {
          "internalType": "uint256",
          "name": "_allPairsLength",
          "type": "uint256"
        }
      ],
      "stateMutability": "view",
      "type": "function",
      "constant": true
    },
    {
      "inputs": [
        {
          "internalType": "address",
          "name": "tokenA",
          "type": "address"
        },
        {
          "internalType": "address",
          "name": "tokenB",
          "type": "address"
        }
      ],
      "name": "createPair",
      "outputs": [
        {
          "internalType": "contract ManySwapPair",
          "name": "_newPair",
          "type": "address"
        }
      ],
      "stateMutability": "nonpayable",
      "type": "function"
    },
    {
      "inputs": [
        {
          "internalType": "address",
          "name": "token0",
          "type": "address"
        },
        {
          "internalType": "address",
          "name": "token1",
          "type": "address"
        },
        {
          "internalType": "uint256",
          "name": "amount0",
          "type": "uint256"
        },
        {
          "internalType": "uint256",
          "name": "amount1",
          "type": "uint256"
        }
      ],
      "name": "addLiquidity",
      "outputs": [
        {
          "internalType": "uint256",
          "name": "liquidity",
          "type": "uint256"
        }
      ],
      "stateMutability": "nonpayable",
      "type": "function"
    },
    {
      "inputs": [
        {
          "internalType": "address",
          "name": "token0",
          "type": "address"
        },
        {
          "internalType": "address",
          "name": "token1",
          "type": "address"
        },
        {
          "internalType": "uint256",
          "name": "amount0In",
          "type": "uint256"
        },
        {
          "internalType": "uint256",
          "name": "amount1In",
          "type": "uint256"
        }
      ],
      "name": "swap",
      "outputs": [],
      "stateMutability": "nonpayable",
      "type": "function"
    }
  ],
  "bytecode": "0x608060405234801561001057600080fd5b50614b24806100206000396000f3fe60806040523480156200001157600080fd5b50600436106200006a5760003560e01c80631e3dd18b146200006f5780639b92f92314620000a5578063c9c6539614620000c7578063cf6c62ea14620000fd578063e6a439051462000133578063fe0291561462000169575b600080fd5b6200008d600480360381019062000087919062000c43565b62000189565b6040516200009c919062000d00565b60405180910390f35b620000af620001c9565b604051620000be919062000d2e565b60405180910390f35b620000e56004803603810190620000df919062000d90565b620001d5565b604051620000f4919062000d00565b60405180910390f35b6200011b600480360381019062000115919062000dd7565b62000338565b6040516200012a919062000d2e565b60405180910390f35b6200015160048036038101906200014b919062000d90565b620005e4565b60405162000160919062000e5a565b60405180910390f35b62000187600480360381019062000181919062000dd7565b62000626565b005b600081815481106200019a57600080fd5b906000526020600020016000915054906101000a900473ffffffffffffffffffffffffffffffffffffffff1681565b60008080549050905090565b60008282604051620001e79062000bf5565b620001f492919062000e77565b604051809103906000f08015801562000211573d6000803e3d6000fd5b50905080600160008573ffffffffffffffffffffffffffffffffffffffff1673ffffffffffffffffffffffffffffffffffffffff16815260200190815260200160002060008473ffffffffffffffffffffffffffffffffffffffff1673ffffffffffffffffffffffffffffffffffffffff16815260200190815260200160002060006101000a81548173ffffffffffffffffffffffffffffffffffffffff021916908373ffffffffffffffffffffffffffffffffffffffff1602179055506000819080600181540180825580915050600190039060005260206000200160009091909190916101000a81548173ffffffffffffffffffffffffffffffffffffffff021916908373ffffffffffffffffffffffffffffffffffffffff16021790555092915050565b600080600160008773ffffffffffffffffffffffffffffffffffffffff1673ffffffffffffffffffffffffffffffffffffffff16815260200190815260200160002060008673ffffffffffffffffffffffffffffffffffffffff1673ffffffffffffffffffffffffffffffffffffffff16815260200190815260200160002060009054906101000a900473ffffffffffffffffffffffffffffffffffffffff169050600073ffffffffffffffffffffffffffffffffffffffff168173ffffffffffffffffffffffffffffffffffffffff16036200044c576040517f08c379a0000000000000000000000000000000000000000000000000000000008152600401620004439062000f05565b60405180910390fd5b8573ffffffffffffffffffffffffffffffffffffffff166323b872dd3383876040518463ffffffff1660e01b81526004016200048b9392919062000f27565b6020604051808303816000875af1158015620004ab573d6000803e3d6000fd5b505050506040513d601f19601f82011682018060405250810190620004d1919062000fa1565b508473ffffffffffffffffffffffffffffffffffffffff166323b872dd3383866040518463ffffffff1660e01b8152600401620005119392919062000f27565b6020604051808303816000875af115801562000531573d6000803e3d6000fd5b505050506040513d601f19601f8201168201806040525081019062000557919062000fa1565b508073ffffffffffffffffffffffffffffffffffffffff16636a627842336040518263ffffffff1660e01b815260040162000593919062000e5a565b6020604051808303816000875af1158015620005b3573d6000803e3d6000fd5b505050506040513d601f19601f82011682018060405250810190620005d9919062000fea565b915050949350505050565b60016020528160005260406000206020528060005260406000206000915091509054906101000a900473ffffffffffffffffffffffffffffffffffffffff1681565b6000600160008673ffffffffffffffffffffffffffffffffffffffff1673ffffffffffffffffffffffffffffffffffffffff16815260200190815260200160002060008573ffffffffffffffffffffffffffffffffffffffff1673ffffffffffffffffffffffffffffffffffffffff16815260200190815260200160002060009054906101000a900473ffffffffffffffffffffffffffffffffffffffff169050600073ffffffffffffffffffffffffffffffffffffffff168173ffffffffffffffffffffffffffffffffffffffff160362000739576040517f08c379a0000000000000000000000000000000000000000000000000000000008152600401620007309062000f05565b60405180910390fd5b6000831180156200074a5750600082115b156200078d576040517f08c379a000000000000000000000000000000000000000000000000000000000815260040162000784906200106c565b60405180910390fd5b600080600085111562000835578673ffffffffffffffffffffffffffffffffffffffff166323b872dd3385886040518463ffffffff1660e01b8152600401620007d99392919062000f27565b6020604051808303816000875af1158015620007f9573d6000803e3d6000fd5b505050506040513d601f19601f820116820180604052508101906200081f919062000fa1565b506200082d86848762000952565b9050620008d6565b6000841115620008d5578573ffffffffffffffffffffffffffffffffffffffff166323b872dd3385876040518463ffffffff1660e01b81526004016200087e9392919062000f27565b6020604051808303816000875af11580156200089e573d6000803e3d6000fd5b505050506040513d601f19601f82011682018060405250810190620008c4919062000fa1565b50620008d287848662000952565b91505b5b8273ffffffffffffffffffffffffffffffffffffffff16636d9a640a8383336040518463ffffffff1660e01b815260040162000915939291906200108e565b600060405180830381600087803b1580156200093057600080fd5b505af115801562000945573d6000803e3d6000fd5b5050505050505050505050565b60008060008473ffffffffffffffffffffffffffffffffffffffff16630902f1ac6040518163ffffffff1660e01b8152600401606060405180830381865afa158015620009a3573d6000803e3d6000fd5b505050506040513d601f19601f82011682018060405250810190620009c9919062001157565b506dffffffffffffffffffffffffffff1691506dffffffffffffffffffffffffffff16915060008573ffffffffffffffffffffffffffffffffffffffff16630dfe16816040518163ffffffff1660e01b8152600401602060405180830381865afa15801562000a3c573d6000803e3d6000fd5b505050506040513d601f19601f8201168201806040525081019062000a629190620011ca565b90506000808273ffffffffffffffffffffffffffffffffffffffff168973ffffffffffffffffffffffffffffffffffffffff161462000aa357838562000aa6565b84845b915091506000871162000af0576040517f08c379a000000000000000000000000000000000000000000000000000000000815260040162000ae79062001272565b60405180910390fd5b60008211801562000b015750600081115b62000b43576040517f08c379a000000000000000000000000000000000000000000000000000000000815260040162000b3a90620012e4565b60405180910390fd5b600062000b5c6103e88962000bc590919063ffffffff16565b9050600062000b75838362000bc590919063ffffffff16565b9050600062000ba48362000b956103e88862000bc590919063ffffffff16565b62000bdd90919063ffffffff16565b9050808262000bb4919062001364565b985050505050505050509392505050565b6000818362000bd591906200139c565b905092915050565b6000818362000bed9190620013fd565b905092915050565b613694806200145b83390190565b600080fd5b6000819050919050565b62000c1d8162000c08565b811462000c2957600080fd5b50565b60008135905062000c3d8162000c12565b92915050565b60006020828403121562000c5c5762000c5b62000c03565b5b600062000c6c8482850162000c2c565b91505092915050565b600073ffffffffffffffffffffffffffffffffffffffff82169050919050565b6000819050919050565b600062000cc062000cba62000cb48462000c75565b62000c95565b62000c75565b9050919050565b600062000cd48262000c9f565b9050919050565b600062000ce88262000cc7565b9050919050565b62000cfa8162000cdb565b82525050565b600060208201905062000d17600083018462000cef565b92915050565b62000d288162000c08565b82525050565b600060208201905062000d45600083018462000d1d565b92915050565b600062000d588262000c75565b9050919050565b62000d6a8162000d4b565b811462000d7657600080fd5b50565b60008135905062000d8a8162000d5f565b92915050565b6000806040838503121562000daa5762000da962000c03565b5b600062000dba8582860162000d79565b925050602062000dcd8582860162000d79565b9150509250929050565b6000806000806080858703121562000df45762000df362000c03565b5b600062000e048782880162000d79565b945050602062000e178782880162000d79565b935050604062000e2a8782880162000c2c565b925050606062000e3d8782880162000c2c565b91505092959194509250565b62000e548162000d4b565b82525050565b600060208201905062000e71600083018462000e49565b92915050565b600060408201905062000e8e600083018562000e49565b62000e9d602083018462000e49565b9392505050565b600082825260208201905092915050565b7f4d616e79537761703a20504149525f4e4f545f464f554e440000000000000000600082015250565b600062000eed60188362000ea4565b915062000efa8262000eb5565b602082019050919050565b6000602082019050818103600083015262000f208162000ede565b9050919050565b600060608201905062000f3e600083018662000e49565b62000f4d602083018562000e49565b62000f5c604083018462000d1d565b949350505050565b60008115159050919050565b62000f7b8162000f64565b811462000f8757600080fd5b50565b60008151905062000f9b8162000f70565b92915050565b60006020828403121562000fba5762000fb962000c03565b5b600062000fca8482850162000f8a565b91505092915050565b60008151905062000fe48162000c12565b92915050565b60006020828403121562001003576200100262000c03565b5b6000620010138482850162000fd3565b91505092915050565b7f4d616e79537761703a20424f54485f414d4f554e54535f4152455f5345540000600082015250565b600062001054601e8362000ea4565b915062001061826200101c565b602082019050919050565b60006020820190508181036000830152620010878162001045565b9050919050565b6000606082019050620010a5600083018662000d1d565b620010b4602083018562000d1d565b620010c3604083018462000e49565b949350505050565b60006dffffffffffffffffffffffffffff82169050919050565b620010f081620010cb565b8114620010fc57600080fd5b50565b6000815190506200111081620010e5565b92915050565b600063ffffffff82169050919050565b620011318162001116565b81146200113d57600080fd5b50565b600081519050620011518162001126565b92915050565b60008060006060848603121562001173576200117262000c03565b5b60006200118386828701620010ff565b93505060206200119686828701620010ff565b9250506040620011a98682870162001140565b9150509250925092565b600081519050620011c48162000d5f565b92915050565b600060208284031215620011e357620011e262000c03565b5b6000620011f384828501620011b3565b91505092915050565b7f4d616e79537761703a20494e53554646494349454e545f494e5055545f414d4f60008201527f554e540000000000000000000000000000000000000000000000000000000000602082015250565b60006200125a60238362000ea4565b91506200126782620011fc565b604082019050919050565b600060208201905081810360008301526200128d816200124b565b9050919050565b7f4d616e79537761703a20494e53554646494349454e545f4c4951554944495459600082015250565b6000620012cc60208362000ea4565b9150620012d98262001294565b602082019050919050565b60006020820190508181036000830152620012ff81620012bd565b9050919050565b7f4e487b7100000000000000000000000000000000000000000000000000000000600052601260045260246000fd5b7f4e487b7100000000000000000000000000000000000000000000000000000000600052601160045260246000fd5b6000620013718262000c08565b91506200137e8362000c08565b92508262001391576200139062001306565b5b828204905092915050565b6000620013a98262000c08565b9150620013b68362000c08565b9250817fffffffffffffffffffffffffffffffffffffffffffffffffffffffffffffffff0483118215151615620013f257620013f162001335565b5b828202905092915050565b60006200140a8262000c08565b9150620014178362000c08565b9250827fffffffffffffffffffffffffffffffffffffffffffffffffffffffffffffffff038211156200144f576200144e62001335565b5b82820190509291505056fe60806040526001600b553480156200001657600080fd5b50604051620036943803806200369483398181016040528101906200003c919062000280565b6040518060400160405280600d81526020017f4d616e79537761702070616972000000000000000000000000000000000000008152506040518060400160405280600481526020017f4d535750000000000000000000000000000000000000000000000000000000008152508160039080519060200190620000c092919062000166565b508060049080519060200190620000d992919062000166565b50505081600560006101000a81548173ffffffffffffffffffffffffffffffffffffffff021916908373ffffffffffffffffffffffffffffffffffffffff16021790555080600660006101000a81548173ffffffffffffffffffffffffffffffffffffffff021916908373ffffffffffffffffffffffffffffffffffffffff16021790555050506200032b565b8280546200017490620002f6565b90600052602060002090601f016020900481019282620001985760008555620001e4565b82601f10620001b357805160ff1916838001178555620001e4565b82800160010185558215620001e4579182015b82811115620001e3578251825591602001919060010190620001c6565b5b509050620001f39190620001f7565b5090565b5b8082111562000212576000816000905550600101620001f8565b5090565b600080fd5b600073ffffffffffffffffffffffffffffffffffffffff82169050919050565b600062000248826200021b565b9050919050565b6200025a816200023b565b81146200026657600080fd5b50565b6000815190506200027a816200024f565b92915050565b600080604083850312156200029a576200029962000216565b5b6000620002aa8582860162000269565b9250506020620002bd8582860162000269565b9150509250929050565b7f4e487b7100000000000000000000000000000000000000000000000000000000600052602260045260246000fd5b600060028204905060018216806200030f57607f821691505b602082108103620003255762000324620002c7565b5b50919050565b613359806200033b6000396000f3fe608060405234801561001057600080fd5b50600436106101375760003560e01c80636a627842116100b857806395d89b411161007c57806395d89b411461036b578063a457c2d714610389578063a9059cbb146103b9578063ba9a7a56146103e9578063d21220a714610407578063dd62ed3e1461042557610137565b80636a627842146102a05780636d9a640a146102d057806370a08231146102ec5780637464fc3d1461031c57806389afcb441461033a57610137565b806323b872dd116100ff57806323b872dd146101e6578063313ce5671461021657806339509351146102345780635909c0d5146102645780635a3d54931461028257610137565b806306fdde031461013c5780630902f1ac1461015a578063095ea7b31461017a5780630dfe1681146101aa57806318160ddd146101c8575b600080fd5b610144610455565b6040516101519190612241565b60405180910390f35b6101626104e7565b604051610171939291906122ab565b60405180910390f35b610194600480360381019061018f919061237b565b610544565b6040516101a191906123d6565b60405180910390f35b6101b2610567565b6040516101bf9190612400565b60405180910390f35b6101d061058d565b6040516101dd919061242a565b60405180910390f35b61020060048036038101906101fb9190612445565b610597565b60405161020d91906123d6565b60405180910390f35b61021e6105c6565b60405161022b91906124b4565b60405180910390f35b61024e6004803603810190610249919061237b565b6105cf565b60405161025b91906123d6565b60405180910390f35b61026c610606565b604051610279919061242a565b60405180910390f35b61028a61060c565b604051610297919061242a565b60405180910390f35b6102ba60048036038101906102b591906124cf565b610612565b6040516102c7919061242a565b60405180910390f35b6102ea60048036038101906102e591906124fc565b610934565b005b610306600480360381019061030191906124cf565b610ebd565b604051610313919061242a565b60405180910390f35b610324610f05565b604051610331919061242a565b60405180910390f35b610354600480360381019061034f91906124cf565b610f0b565b60405161036292919061254f565b60405180910390f35b6103736112b8565b6040516103809190612241565b60405180910390f35b6103a3600480360381019061039e919061237b565b61134a565b6040516103b091906123d6565b60405180910390f35b6103d360048036038101906103ce919061237b565b6113c1565b6040516103e091906123d6565b60405180910390f35b6103f16113e4565b6040516103fe919061242a565b60405180910390f35b61040f6113ea565b60405161041c9190612400565b60405180910390f35b61043f600480360381019061043a9190612578565b611410565b60405161044c919061242a565b60405180910390f35b606060038054610464906125e7565b80601f0160208091040260200160405190810160405280929190818152602001828054610490906125e7565b80156104dd5780601f106104b2576101008083540402835291602001916104dd565b820191906000526020600020905b8154815290600101906020018083116104c057829003601f168201915b5050505050905090565b6000806000600760009054906101000a90046dffffffffffffffffffffffffffff1692506007600e9054906101000a90046dffffffffffffffffffffffffffff1691506007601c9054906101000a900463ffffffff169050909192565b60008061054f611497565b905061055c81858561149f565b600191505092915050565b600560009054906101000a900473ffffffffffffffffffffffffffffffffffffffff1681565b6000600254905090565b6000806105a2611497565b90506105af858285611668565b6105ba8585856116f4565b60019150509392505050565b60006012905090565b6000806105da611497565b90506105fb8185856105ec8589611410565b6105f69190612647565b61149f565b600191505092915050565b60085481565b60095481565b600080600b819055506000806106266104e7565b50915091506000600560009054906101000a900473ffffffffffffffffffffffffffffffffffffffff1673ffffffffffffffffffffffffffffffffffffffff166370a08231306040518263ffffffff1660e01b81526004016106889190612400565b602060405180830381865afa1580156106a5573d6000803e3d6000fd5b505050506040513d601f19601f820116820180604052508101906106c991906126b2565b90506000600660009054906101000a900473ffffffffffffffffffffffffffffffffffffffff1673ffffffffffffffffffffffffffffffffffffffff166370a08231306040518263ffffffff1660e01b81526004016107289190612400565b602060405180830381865afa158015610745573d6000803e3d6000fd5b505050506040513d601f19601f8201168201806040525081019061076991906126b2565b90506000610790856dffffffffffffffffffffffffffff168461197390919063ffffffff16565b905060006107b7856dffffffffffffffffffffffffffff168461197390919063ffffffff16565b905060006107c361058d565b905060008103610810576107fc6103e86107ee6107e9858761198990919063ffffffff16565b61199f565b61197390919063ffffffff16565b975061080b60006103e8611a19565b610877565b610874876dffffffffffffffffffffffffffff16610837838661198990919063ffffffff16565b610841919061270e565b876dffffffffffffffffffffffffffff16610865848661198990919063ffffffff16565b61086f919061270e565b611b09565b97505b600088116108ba576040517f08c379a00000000000000000000000000000000000000000000000000000000081526004016108b1906127b1565b60405180910390fd5b6108c48989611a19565b6108d085858989611b22565b3373ffffffffffffffffffffffffffffffffffffffff167f4c209b5fc8ad50758f13e2e1088ba56a560dff690a1c6fef26394f4c03821c4f848460405161091892919061254f565b60405180910390a2505050505050506001600b81905550919050565b6000600b81905550600083118061094b5750600082115b61098a576040517f08c379a000000000000000000000000000000000000000000000000000000000815260040161098190612843565b60405180910390fd5b6000806109956104e7565b5091509150816dffffffffffffffffffffffffffff16851080156109c85750806dffffffffffffffffffffffffffff1684105b610a07576040517f08c379a00000000000000000000000000000000000000000000000000000000081526004016109fe906128af565b60405180910390fd5b6000806000600560009054906101000a900473ffffffffffffffffffffffffffffffffffffffff1690506000600660009054906101000a900473ffffffffffffffffffffffffffffffffffffffff1690508173ffffffffffffffffffffffffffffffffffffffff168773ffffffffffffffffffffffffffffffffffffffff1614158015610ac057508073ffffffffffffffffffffffffffffffffffffffff168773ffffffffffffffffffffffffffffffffffffffff1614155b610aff576040517f08c379a0000000000000000000000000000000000000000000000000000000008152600401610af69061291b565b60405180910390fd5b6000891115610b1457610b1382888b611de4565b5b6000881115610b2957610b2881888a611de4565b5b8173ffffffffffffffffffffffffffffffffffffffff166370a08231306040518263ffffffff1660e01b8152600401610b629190612400565b602060405180830381865afa158015610b7f573d6000803e3d6000fd5b505050506040513d601f19601f82011682018060405250810190610ba391906126b2565b93508073ffffffffffffffffffffffffffffffffffffffff166370a08231306040518263ffffffff1660e01b8152600401610bde9190612400565b602060405180830381865afa158015610bfb573d6000803e3d6000fd5b505050506040513d601f19601f82011682018060405250810190610c1f91906126b2565b92505050600087856dffffffffffffffffffffffffffff16610c41919061293b565b8311610c4e576000610c76565b87856dffffffffffffffffffffffffffff16610c6a919061293b565b83610c75919061293b565b5b9050600087856dffffffffffffffffffffffffffff16610c96919061293b565b8311610ca3576000610ccb565b87856dffffffffffffffffffffffffffff16610cbf919061293b565b83610cca919061293b565b5b90506000821180610cdc5750600081115b610d1b576040517f08c379a0000000000000000000000000000000000000000000000000000000008152600401610d12906129e1565b60405180910390fd5b6000610d57610d3460038561198990919063ffffffff16565b610d496103e88861198990919063ffffffff16565b61197390919063ffffffff16565b90506000610d95610d7260038561198990919063ffffffff16565b610d876103e88861198990919063ffffffff16565b61197390919063ffffffff16565b9050610ddd6064610dcf896dffffffffffffffffffffffffffff168b6dffffffffffffffffffffffffffff1661198990919063ffffffff16565b61198990919063ffffffff16565b610df0828461198990919063ffffffff16565b1015610e31576040517f08c379a0000000000000000000000000000000000000000000000000000000008152600401610e2890612a4d565b60405180910390fd5b5050610e3f84848888611b22565b8673ffffffffffffffffffffffffffffffffffffffff163373ffffffffffffffffffffffffffffffffffffffff167fd78ad95fa46c994b6551d0da85fc275fe613ce37657fb8d5e3d130840159d82284848d8d604051610ea29493929190612a6d565b60405180910390a35050505050506001600b81905550505050565b60008060008373ffffffffffffffffffffffffffffffffffffffff1673ffffffffffffffffffffffffffffffffffffffff168152602001908152602001600020549050919050565b600a5481565b6000806000600b81905550600080610f216104e7565b50915091506000600560009054906101000a900473ffffffffffffffffffffffffffffffffffffffff1690506000600660009054906101000a900473ffffffffffffffffffffffffffffffffffffffff16905060008273ffffffffffffffffffffffffffffffffffffffff166370a08231306040518263ffffffff1660e01b8152600401610faf9190612400565b602060405180830381865afa158015610fcc573d6000803e3d6000fd5b505050506040513d601f19601f82011682018060405250810190610ff091906126b2565b905060008273ffffffffffffffffffffffffffffffffffffffff166370a08231306040518263ffffffff1660e01b815260040161102d9190612400565b602060405180830381865afa15801561104a573d6000803e3d6000fd5b505050506040513d601f19601f8201168201806040525081019061106e91906126b2565b9050600061107b30610ebd565b9050600061108761058d565b90508061109d858461198990919063ffffffff16565b6110a7919061270e565b9950806110bd848461198990919063ffffffff16565b6110c7919061270e565b985060008a1180156110d95750600089115b611118576040517f08c379a000000000000000000000000000000000000000000000000000000000815260040161110f90612b24565b60405180910390fd5b6111223083611f6e565b61112d868c8c611de4565b611138858c8b611de4565b8573ffffffffffffffffffffffffffffffffffffffff166370a08231306040518263ffffffff1660e01b81526004016111719190612400565b602060405180830381865afa15801561118e573d6000803e3d6000fd5b505050506040513d601f19601f820116820180604052508101906111b291906126b2565b93508473ffffffffffffffffffffffffffffffffffffffff166370a08231306040518263ffffffff1660e01b81526004016111ed9190612400565b602060405180830381865afa15801561120a573d6000803e3d6000fd5b505050506040513d601f19601f8201168201806040525081019061122e91906126b2565b925061123c84848a8a611b22565b8a73ffffffffffffffffffffffffffffffffffffffff163373ffffffffffffffffffffffffffffffffffffffff167fdccd412f0b1252819cb1fd330b93224ca42612892bb3f4f789976e6d819364968c8c60405161129b92919061254f565b60405180910390a350505050505050506001600b81905550915091565b6060600480546112c7906125e7565b80601f01602080910402602001604051908101604052809291908181526020018280546112f3906125e7565b80156113405780601f1061131557610100808354040283529160200191611340565b820191906000526020600020905b81548152906001019060200180831161132357829003601f168201915b5050505050905090565b600080611355611497565b905060006113638286611410565b9050838110156113a8576040517f08c379a000000000000000000000000000000000000000000000000000000000815260040161139f90612bb6565b60405180910390fd5b6113b5828686840361149f565b60019250505092915050565b6000806113cc611497565b90506113d98185856116f4565b600191505092915050565b6103e881565b600660009054906101000a900473ffffffffffffffffffffffffffffffffffffffff1681565b6000600160008473ffffffffffffffffffffffffffffffffffffffff1673ffffffffffffffffffffffffffffffffffffffff16815260200190815260200160002060008373ffffffffffffffffffffffffffffffffffffffff1673ffffffffffffffffffffffffffffffffffffffff16815260200190815260200160002054905092915050565b600033905090565b600073ffffffffffffffffffffffffffffffffffffffff168373ffffffffffffffffffffffffffffffffffffffff160361150e576040517f08c379a000000000000000000000000000000000000000000000000000000000815260040161150590612c48565b60405180910390fd5b600073ffffffffffffffffffffffffffffffffffffffff168273ffffffffffffffffffffffffffffffffffffffff160361157d576040517f08c379a000000000000000000000000000000000000000000000000000000000815260040161157490612cda565b60405180910390fd5b80600160008573ffffffffffffffffffffffffffffffffffffffff1673ffffffffffffffffffffffffffffffffffffffff16815260200190815260200160002060008473ffffffffffffffffffffffffffffffffffffffff1673ffffffffffffffffffffffffffffffffffffffff168152602001908152602001600020819055508173ffffffffffffffffffffffffffffffffffffffff168373ffffffffffffffffffffffffffffffffffffffff167f8c5be1e5ebec7d5bd14f71427d1e84f3dd0314c0f7b2291e5b200ac8c7c3b9258360405161165b919061242a565b60405180910390a3505050565b60006116748484611410565b90507fffffffffffffffffffffffffffffffffffffffffffffffffffffffffffffffff81146116ee57818110156116e0576040517f08c379a00000000000000000000000000000000000000000000000000000000081526004016116d790612d46565b60405180910390fd5b6116ed848484840361149f565b5b50505050565b600073ffffffffffffffffffffffffffffffffffffffff168373ffffffffffffffffffffffffffffffffffffffff1603611763576040517f08c379a000000000000000000000000000000000000000000000000000000000815260040161175a90612dd8565b60405180910390fd5b600073ffffffffffffffffffffffffffffffffffffffff168273ffffffffffffffffffffffffffffffffffffffff16036117d2576040517f08c379a00000000000000000000000000000000000000000000000000000000081526004016117c990612e6a565b60405180910390fd5b6117dd838383612144565b60008060008573ffffffffffffffffffffffffffffffffffffffff1673ffffffffffffffffffffffffffffffffffffffff16815260200190815260200160002054905081811015611863576040517f08c379a000000000000000000000000000000000000000000000000000000000815260040161185a90612efc565b60405180910390fd5b8181036000808673ffffffffffffffffffffffffffffffffffffffff1673ffffffffffffffffffffffffffffffffffffffff16815260200190815260200160002081905550816000808573ffffffffffffffffffffffffffffffffffffffff1673ffffffffffffffffffffffffffffffffffffffff16815260200190815260200160002060008282546118f69190612647565b925050819055508273ffffffffffffffffffffffffffffffffffffffff168473ffffffffffffffffffffffffffffffffffffffff167fddf252ad1be2c89b69c2b068fc378daa952ba7f163c4a11628f55a4df523b3ef8460405161195a919061242a565b60405180910390a361196d848484612149565b50505050565b60008183611981919061293b565b905092915050565b600081836119979190612f1c565b905092915050565b60006003821115611a0657819050600060016002846119be919061270e565b6119c89190612647565b90505b81811015611a005780915060028182856119e5919061270e565b6119ef9190612647565b6119f9919061270e565b90506119cb565b50611a14565b60008214611a1357600190505b5b919050565b611a2560008383612144565b8060026000828254611a379190612647565b92505081905550806000808473ffffffffffffffffffffffffffffffffffffffff1673ffffffffffffffffffffffffffffffffffffffff1681526020019081526020016000206000828254611a8c9190612647565b925050819055508173ffffffffffffffffffffffffffffffffffffffff16600073ffffffffffffffffffffffffffffffffffffffff167fddf252ad1be2c89b69c2b068fc378daa952ba7f163c4a11628f55a4df523b3ef83604051611af1919061242a565b60405180910390a3611b0560008383612149565b5050565b6000818310611b185781611b1a565b825b905092915050565b600064010000000042611b359190612f76565b905060006007601c9054906101000a900463ffffffff1682611b579190612fa7565b905060008163ffffffff16118015611b8057506000846dffffffffffffffffffffffffffff1614155b8015611b9d57506000836dffffffffffffffffffffffffffff1614155b15611ca3578063ffffffff16611be285611bb68661214e565b7bffffffffffffffffffffffffffffffffffffffffffffffffffffffff1661218290919063ffffffff16565b7bffffffffffffffffffffffffffffffffffffffffffffffffffffffff16611c0a9190612f1c565b60086000828254611c1b9190612647565b925050819055508063ffffffff16611c6284611c368761214e565b7bffffffffffffffffffffffffffffffffffffffffffffffffffffffff1661218290919063ffffffff16565b7bffffffffffffffffffffffffffffffffffffffffffffffffffffffff16611c8a9190612f1c565b60096000828254611c9b9190612647565b925050819055505b85600760006101000a8154816dffffffffffffffffffffffffffff02191690836dffffffffffffffffffffffffffff160217905550846007600e6101000a8154816dffffffffffffffffffffffffffff02191690836dffffffffffffffffffffffffffff160217905550816007601c6101000a81548163ffffffff021916908363ffffffff1602179055507f1c411e9a96e071241c2f21f7726b17ae89e3cab4c78be50e062b03a9fffbbad1600760009054906101000a90046dffffffffffffffffffffffffffff166007600e9054906101000a90046dffffffffffffffffffffffffffff16604051611d97929190612fdb565b60405180910390a17fd1353c68e79ef70de84ee90d2facf845ec24895116d4a03505aa41785af71f5a600854600954604051611dd492919061254f565b60405180910390a1505050505050565b6000808473ffffffffffffffffffffffffffffffffffffffff166040518060400160405280601981526020017f7472616e7366657228616464726573732c75696e743235362900000000000000815250805190602001208585604051602401611e4e929190613004565b604051602081830303815290604052907bffffffffffffffffffffffffffffffffffffffffffffffffffffffff19166020820180517bffffffffffffffffffffffffffffffffffffffffffffffffffffffff8381831617835250505050604051611eb89190613074565b6000604051808303816000865af19150503d8060008114611ef5576040519150601f19603f3d011682016040523d82523d6000602084013e611efa565b606091505b5091509150818015611f285750600081511480611f27575080806020019051810190611f2691906130b7565b5b5b611f67576040517f08c379a0000000000000000000000000000000000000000000000000000000008152600401611f5e90613130565b60405180910390fd5b5050505050565b600073ffffffffffffffffffffffffffffffffffffffff168273ffffffffffffffffffffffffffffffffffffffff1603611fdd576040517f08c379a0000000000000000000000000000000000000000000000000000000008152600401611fd4906131c2565b60405180910390fd5b611fe982600083612144565b60008060008473ffffffffffffffffffffffffffffffffffffffff1673ffffffffffffffffffffffffffffffffffffffff1681526020019081526020016000205490508181101561206f576040517f08c379a000000000000000000000000000000000000000000000000000000000815260040161206690613254565b60405180910390fd5b8181036000808573ffffffffffffffffffffffffffffffffffffffff1673ffffffffffffffffffffffffffffffffffffffff1681526020019081526020016000208190555081600260008282546120c6919061293b565b92505081905550600073ffffffffffffffffffffffffffffffffffffffff168373ffffffffffffffffffffffffffffffffffffffff167fddf252ad1be2c89b69c2b068fc378daa952ba7f163c4a11628f55a4df523b3ef8460405161212b919061242a565b60405180910390a361213f83600084612149565b505050565b505050565b505050565b60006e010000000000000000000000000000826dffffffffffffffffffffffffffff1661217b919061329c565b9050919050565b6000816dffffffffffffffffffffffffffff16836121a091906132f2565b905092915050565b600081519050919050565b600082825260208201905092915050565b60005b838110156121e25780820151818401526020810190506121c7565b838111156121f1576000848401525b50505050565b6000601f19601f8301169050919050565b6000612213826121a8565b61221d81856121b3565b935061222d8185602086016121c4565b612236816121f7565b840191505092915050565b6000602082019050818103600083015261225b8184612208565b905092915050565b60006dffffffffffffffffffffffffffff82169050919050565b61228681612263565b82525050565b600063ffffffff82169050919050565b6122a58161228c565b82525050565b60006060820190506122c0600083018661227d565b6122cd602083018561227d565b6122da604083018461229c565b949350505050565b600080fd5b600073ffffffffffffffffffffffffffffffffffffffff82169050919050565b6000612312826122e7565b9050919050565b61232281612307565b811461232d57600080fd5b50565b60008135905061233f81612319565b92915050565b6000819050919050565b61235881612345565b811461236357600080fd5b50565b6000813590506123758161234f565b92915050565b60008060408385031215612392576123916122e2565b5b60006123a085828601612330565b92505060206123b185828601612366565b9150509250929050565b60008115159050919050565b6123d0816123bb565b82525050565b60006020820190506123eb60008301846123c7565b92915050565b6123fa81612307565b82525050565b600060208201905061241560008301846123f1565b92915050565b61242481612345565b82525050565b600060208201905061243f600083018461241b565b92915050565b60008060006060848603121561245e5761245d6122e2565b5b600061246c86828701612330565b935050602061247d86828701612330565b925050604061248e86828701612366565b9150509250925092565b600060ff82169050919050565b6124ae81612498565b82525050565b60006020820190506124c960008301846124a5565b92915050565b6000602082840312156124e5576124e46122e2565b5b60006124f384828501612330565b91505092915050565b600080600060608486031215612515576125146122e2565b5b600061252386828701612366565b935050602061253486828701612366565b925050604061254586828701612330565b9150509250925092565b6000604082019050612564600083018561241b565b612571602083018461241b565b9392505050565b6000806040838503121561258f5761258e6122e2565b5b600061259d85828601612330565b92505060206125ae85828601612330565b9150509250929050565b7f4e487b7100000000000000000000000000000000000000000000000000000000600052602260045260246000fd5b600060028204905060018216806125ff57607f821691505b602082108103612612576126116125b8565b5b50919050565b7f4e487b7100000000000000000000000000000000000000000000000000000000600052601160045260246000fd5b600061265282612345565b915061265d83612345565b9250827fffffffffffffffffffffffffffffffffffffffffffffffffffffffffffffffff0382111561269257612691612618565b5b828201905092915050565b6000815190506126ac8161234f565b92915050565b6000602082840312156126c8576126c76122e2565b5b60006126d68482850161269d565b91505092915050565b7f4e487b7100000000000000000000000000000000000000000000000000000000600052601260045260246000fd5b600061271982612345565b915061272483612345565b925082612734576127336126df565b5b828204905092915050565b7f4d616e79537761703a20494e53554646494349454e545f4c495155494449545960008201527f5f4d494e54454400000000000000000000000000000000000000000000000000602082015250565b600061279b6027836121b3565b91506127a68261273f565b604082019050919050565b600060208201905081810360008301526127ca8161278e565b9050919050565b7f4d616e79537761703a20494e53554646494349454e545f4f55545055545f414d60008201527f4f554e5400000000000000000000000000000000000000000000000000000000602082015250565b600061282d6024836121b3565b9150612838826127d1565b604082019050919050565b6000602082019050818103600083015261285c81612820565b9050919050565b7f4d616e79537761703a20494e53554646494349454e545f4c4951554944495459600082015250565b60006128996020836121b3565b91506128a482612863565b602082019050919050565b600060208201905081810360008301526128c88161288c565b9050919050565b7f4d616e79537761703a20494e56414c49445f544f000000000000000000000000600082015250565b60006129056014836121b3565b9150612910826128cf565b602082019050919050565b60006020820190508181036000830152612934816128f8565b9050919050565b600061294682612345565b915061295183612345565b92508282101561296457612963612618565b5b828203905092915050565b7f4d616e79537761703a20494e53554646494349454e545f494e5055545f414d4f60008201527f554e540000000000000000000000000000000000000000000000000000000000602082015250565b60006129cb6023836121b3565b91506129d68261296f565b604082019050919050565b600060208201905081810360008301526129fa816129be565b9050919050565b7f4d616e79537761703a204b000000000000000000000000000000000000000000600082015250565b6000612a37600b836121b3565b9150612a4282612a01565b602082019050919050565b60006020820190508181036000830152612a6681612a2a565b9050919050565b6000608082019050612a82600083018761241b565b612a8f602083018661241b565b612a9c604083018561241b565b612aa9606083018461241b565b95945050505050565b7f4d616e79537761703a20494e53554646494349454e545f4c495155494449545960008201527f5f4255524e454400000000000000000000000000000000000000000000000000602082015250565b6000612b0e6027836121b3565b9150612b1982612ab2565b604082019050919050565b60006020820190508181036000830152612b3d81612b01565b9050919050565b7f45524332303a2064656372656173656420616c6c6f77616e63652062656c6f7760008201527f207a65726f000000000000000000000000000000000000000000000000000000602082015250565b6000612ba06025836121b3565b9150612bab82612b44565b604082019050919050565b60006020820190508181036000830152612bcf81612b93565b9050919050565b7f45524332303a20617070726f76652066726f6d20746865207a65726f2061646460008201527f7265737300000000000000000000000000000000000000000000000000000000602082015250565b6000612c326024836121b3565b9150612c3d82612bd6565b604082019050919050565b60006020820190508181036000830152612c6181612c25565b9050919050565b7f45524332303a20617070726f766520746f20746865207a65726f20616464726560008201527f7373000000000000000000000000000000000000000000000000000000000000602082015250565b6000612cc46022836121b3565b9150612ccf82612c68565b604082019050919050565b60006020820190508181036000830152612cf381612cb7565b9050919050565b7f45524332303a20696e73756666696369656e7420616c6c6f77616e6365000000600082015250565b6000612d30601d836121b3565b9150612d3b82612cfa565b602082019050919050565b60006020820190508181036000830152612d5f81612d23565b9050919050565b7f45524332303a207472616e736665722066726f6d20746865207a65726f20616460008201527f6472657373000000000000000000000000000000000000000000000000000000602082015250565b6000612dc26025836121b3565b9150612dcd82612d66565b604082019050919050565b60006020820190508181036000830152612df181612db5565b9050919050565b7f45524332303a207472616e7366657220746f20746865207a65726f206164647260008201527f6573730000000000000000000000000000000000000000000000000000000000602082015250565b6000612e546023836121b3565b9150612e5f82612df8565b604082019050919050565b60006020820190508181036000830152612e8381612e47565b9050919050565b7f45524332303a207472616e7366657220616d6f756e742065786365656473206260008201527f616c616e63650000000000000000000000000000000000000000000000000000602082015250565b6000612ee66026836121b3565b9150612ef182612e8a565b604082019050919050565b60006020820190508181036000830152612f1581612ed9565b9050919050565b6000612f2782612345565b9150612f3283612345565b9250817fffffffffffffffffffffffffffffffffffffffffffffffffffffffffffffffff0483118215151615612f6b57612f6a612618565b5b828202905092915050565b6000612f8182612345565b9150612f8c83612345565b925082612f9c57612f9b6126df565b5b828206905092915050565b6000612fb28261228c565b9150612fbd8361228c565b925082821015612fd057612fcf612618565b5b828203905092915050565b6000604082019050612ff0600083018561227d565b612ffd602083018461227d565b9392505050565b600060408201905061301960008301856123f1565b613026602083018461241b565b9392505050565b600081519050919050565b600081905092915050565b600061304e8261302d565b6130588185613038565b93506130688185602086016121c4565b80840191505092915050565b60006130808284613043565b915081905092915050565b613094816123bb565b811461309f57600080fd5b50565b6000815190506130b18161308b565b92915050565b6000602082840312156130cd576130cc6122e2565b5b60006130db848285016130a2565b91505092915050565b7f4d616e79537761703a205452414e534645525f4641494c454400000000000000600082015250565b600061311a6019836121b3565b9150613125826130e4565b602082019050919050565b600060208201905081810360008301526131498161310d565b9050919050565b7f45524332303a206275726e2066726f6d20746865207a65726f2061646472657360008201527f7300000000000000000000000000000000000000000000000000000000000000602082015250565b60006131ac6021836121b3565b91506131b782613150565b604082019050919050565b600060208201905081810360008301526131db8161319f565b9050919050565b7f45524332303a206275726e20616d6f756e7420657863656564732062616c616e60008201527f6365000000000000000000000000000000000000000000000000000000000000602082015250565b600061323e6022836121b3565b9150613249826131e2565b604082019050919050565b6000602082019050818103600083015261326d81613231565b9050919050565b60007bffffffffffffffffffffffffffffffffffffffffffffffffffffffff82169050919050565b60006132a782613274565b91506132b283613274565b9250817bffffffffffffffffffffffffffffffffffffffffffffffffffffffff04831182151516156132e7576132e6612618565b5b828202905092915050565b60006132fd82613274565b915061330883613274565b925082613318576133176126df565b5b82820490509291505056fea264697066735822122004eab5929d1142195900c409cc0a06d85509af2db5d0aeba09f14b9897ce96f764736f6c634300080d0033a2646970667358221220486543f0b719887ca31229017cd66fe85cc30669b9b39471a7e8ae6292eaeac264736f6c634300080d0033",
  "immutableReferences": {},
  "source": "// contracts/ManySwapPair.sol\n// SPDX-License-Identifier: MIT\npragma solidity ^0.8.0;\n\nimport './ManySwapPair.sol';\nimport './ERC20.sol';\nimport \"@openzeppelin/contracts/utils/math/Math.sol\";\n\ncontract Router {\n  using SafeMath  for uint;\n  ManySwapPair[] public allPairs;\n  mapping(address => mapping(address => address)) public getPair;\n\n  function getAllPairsLength() public view returns (uint256 _allPairsLength) {\n    _allPairsLength = allPairs.length;\n  }\n\n  function createPair(address tokenA, address tokenB)\n    external\n    returns (ManySwapPair _newPair)\n  {\n    _newPair = new ManySwapPair(tokenA, tokenB);\n    getPair[tokenA][tokenB] = address(_newPair);\n    allPairs.push(_newPair);\n  }\n\n  function addLiquidity(\n    address token0,\n    address token1,\n    uint256 amount0,\n    uint256 amount1\n  ) external returns (uint256 liquidity) {\n    address pair = getPair[token0][token1];\n    require(pair != address(0), 'ManySwap: PAIR_NOT_FOUND');\n    ERC20(token0).transferFrom(msg.sender, address(pair), amount0);\n    ERC20(token1).transferFrom(msg.sender, address(pair), amount1);\n    liquidity = ManySwapPair(pair).mint(msg.sender);\n  }\n\n  function getAmountOut(\n    address tokenIn,\n    address pair,\n    uint256 amountIn\n  ) internal view returns (uint256 amountOut) {\n    (uint256 reserve0, uint256 reserve1, ) = ManySwapPair(\n      pair\n    ).getReserves();\n    address token0 = ManySwapPair(pair).token0();\n    (uint256 reserveIn, uint256 reserveOut) = tokenIn == token0\n      ? (reserve0, reserve1)\n      : (reserve1, reserve0);\n\n    require(amountIn > 0, 'ManySwap: INSUFFICIENT_INPUT_AMOUNT');\n    require(\n      reserveIn > 0 && reserveOut > 0,\n      'ManySwap: INSUFFICIENT_LIQUIDITY'\n    );\n    uint256 amountInWithFee = amountIn.mul(1000);\n    uint256 numerator = amountInWithFee.mul(reserveOut);\n    uint256 denominator = reserveIn.mul(1000).add(amountInWithFee);\n    amountOut = numerator / denominator;\n  }\n\n  function swap(\n    address token0,\n    address token1,\n    uint256 amount0In,\n    uint256 amount1In\n  ) external {\n    address pair = getPair[token0][token1];\n    require(pair != address(0), 'ManySwap: PAIR_NOT_FOUND');\n    require(!(amount0In > 0 && amount1In > 0), 'ManySwap: BOTH_AMOUNTS_ARE_SET');\n    uint256 amount0Out = 0;\n    uint256 amount1Out = 0;\n    if (amount0In > 0) {\n      ERC20(token0).transferFrom(msg.sender, address(pair), amount0In);\n      amount1Out = getAmountOut(token1, pair, amount0In);\n    } else if (amount1In > 0) {\n      ERC20(token1).transferFrom(msg.sender, address(pair), amount1In);\n      amount0Out = getAmountOut(token0, pair, amount1In);\n    }\n    ManySwapPair(pair).swap(amount0Out, amount1Out, msg.sender);\n  }\n}\n",
  "sourcePath": "/home/raphaelv/CODE/many-swap/contracts/contracts/Router.sol",
  "compiler": {
    "name": "solc",
    "version": "0.8.13+commit.abaa5c0e.Emscripten.clang"
  },
  "schemaVersion": "3.4.7",
  "updatedAt": "2022-05-29T10:24:24.974Z",
  "networkType": "ethereum",
  "devdoc": {
    "kind": "dev",
    "methods": {},
    "version": 1
  },
  "userdoc": {
    "kind": "user",
    "methods": {},
    "version": 1
  }
}